{
  "_format": "hh-sol-artifact-1",
  "contractName": "BetGame",
  "sourceName": "contracts/bet-game.sol",
  "abi": [
    {
      "inputs": [],
      "stateMutability": "nonpayable",
      "type": "constructor"
    },
    {
      "inputs": [
        {
          "internalType": "bool",
          "name": "flag",
          "type": "bool"
        }
      ],
      "name": "bet",
      "outputs": [
        {
          "internalType": "bool",
          "name": "",
          "type": "bool"
        }
      ],
      "stateMutability": "payable",
      "type": "function"
    },
    {
      "inputs": [],
      "name": "open",
      "outputs": [
        {
          "internalType": "bool",
          "name": "",
          "type": "bool"
        }
      ],
      "stateMutability": "payable",
      "type": "function"
    },
    {
      "inputs": [],
      "name": "owner",
      "outputs": [
        {
          "internalType": "address",
          "name": "",
          "type": "address"
        }
      ],
      "stateMutability": "view",
      "type": "function"
    }
  ],
  "bytecode": "0x608060405234801561001057600080fd5b50336000806101000a81548173ffffffffffffffffffffffffffffffffffffffff021916908373ffffffffffffffffffffffffffffffffffffffff1602179055506000600481905550600060038190555060008060146101000a81548160ff021916908315150217905550426005819055506108dd806100916000396000f3fe6080604052600436106100345760003560e01c8063523afb0d146100395780638da5cb5b14610069578063fcfff16f14610094575b600080fd5b610053600480360381019061004e9190610594565b6100b2565b6040516100609190610640565b60405180910390f35b34801561007557600080fd5b5061007e61023d565b60405161008b91906105ee565b60405180910390f35b61009c610261565b6040516100a99190610640565b60405180910390f35b60008034116100c057600080fd5b600060405180604001604052803373ffffffffffffffffffffffffffffffffffffffff168152602001348152509050821561019657600181908060018154018082558091505060019003906000526020600020906002020160009091909190915060008201518160000160006101000a81548173ffffffffffffffffffffffffffffffffffffffff021916908373ffffffffffffffffffffffffffffffffffffffff16021790555060208201518160010155505080602001516003600082825461018a919061065b565b92505081905550610233565b600281908060018154018082558091505060019003906000526020600020906002020160009091909190915060008201518160000160006101000a81548173ffffffffffffffffffffffffffffffffffffffff021916908373ffffffffffffffffffffffffffffffffffffffff16021790555060208201518160010155505080602001516004600082825461022b919061065b565b925050819055505b6001915050919050565b60008054906101000a900473ffffffffffffffffffffffffffffffffffffffff1681565b60008060149054906101000a900460ff161561027c57600080fd5b6000600933424360405160200161029593929190610609565b6040516020818303038152906040528051906020012060001c6102b891906107cd565b905060006102c461054f565b600583106103fd57600091505b6001805490508210156103f857600182815481106102f2576102f161085c565b5b90600052602060002090600202016040518060400160405290816000820160009054906101000a900473ffffffffffffffffffffffffffffffffffffffff1673ffffffffffffffffffffffffffffffffffffffff1673ffffffffffffffffffffffffffffffffffffffff1681526020016001820154815250509050806000015173ffffffffffffffffffffffffffffffffffffffff166108fc60035483602001516004546103a091906106e2565b6103aa91906106b1565b83602001516103b9919061065b565b9081150290604051600060405180830381858888f193505050501580156103e4573d6000803e3d6000fd5b5081806103f090610784565b9250506102d1565b61052a565b600091505b60028054905082101561052957600282815481106104235761042261085c565b5b90600052602060002090600202016040518060400160405290816000820160009054906101000a900473ffffffffffffffffffffffffffffffffffffffff1673ffffffffffffffffffffffffffffffffffffffff1673ffffffffffffffffffffffffffffffffffffffff1681526020016001820154815250509050806000015173ffffffffffffffffffffffffffffffffffffffff166108fc60045483602001516003546104d191906106e2565b6104db91906106b1565b83602001516104ea919061065b565b9081150290604051600060405180830381858888f19350505050158015610515573d6000803e3d6000fd5b50818061052190610784565b925050610402565b5b6001600060146101000a81548160ff0219169083151502179055506001935050505090565b6040518060400160405280600073ffffffffffffffffffffffffffffffffffffffff168152602001600081525090565b60008135905061058e81610890565b92915050565b6000602082840312156105aa576105a961088b565b5b60006105b88482850161057f565b91505092915050565b6105ca8161073c565b82525050565b6105d98161074e565b82525050565b6105e88161077a565b82525050565b600060208201905061060360008301846105c1565b92915050565b600060608201905061061e60008301866105c1565b61062b60208301856105df565b61063860408301846105df565b949350505050565b600060208201905061065560008301846105d0565b92915050565b60006106668261077a565b91506106718361077a565b9250827fffffffffffffffffffffffffffffffffffffffffffffffffffffffffffffffff038211156106a6576106a56107fe565b5b828201905092915050565b60006106bc8261077a565b91506106c78361077a565b9250826106d7576106d661082d565b5b828204905092915050565b60006106ed8261077a565b91506106f88361077a565b9250817fffffffffffffffffffffffffffffffffffffffffffffffffffffffffffffffff0483118215151615610731576107306107fe565b5b828202905092915050565b60006107478261075a565b9050919050565b60008115159050919050565b600073ffffffffffffffffffffffffffffffffffffffff82169050919050565b6000819050919050565b600061078f8261077a565b91507fffffffffffffffffffffffffffffffffffffffffffffffffffffffffffffffff8214156107c2576107c16107fe565b5b600182019050919050565b60006107d88261077a565b91506107e38361077a565b9250826107f3576107f261082d565b5b828206905092915050565b7f4e487b7100000000000000000000000000000000000000000000000000000000600052601160045260246000fd5b7f4e487b7100000000000000000000000000000000000000000000000000000000600052601260045260246000fd5b7f4e487b7100000000000000000000000000000000000000000000000000000000600052603260045260246000fd5b600080fd5b6108998161074e565b81146108a457600080fd5b5056fea2646970667358221220d61c0c6a3dc1d657127805e471d9279afff651e349a2c5a31a26dcd999b14b2664736f6c63430008060033",
  "linkReferences": {},
  "deployedLinkReferences": {}
}