{
  "_format": "hh-sol-artifact-1",
  "contractName": "BetGame",
  "sourceName": "contracts/bet-game.sol",
  "abi": [
    {
      "inputs": [],
      "stateMutability": "nonpayable",
      "type": "constructor"
    },
    {
      "anonymous": false,
      "inputs": [
        {
          "indexed": true,
          "internalType": "address",
          "name": "previousOwner",
          "type": "address"
        },
        {
          "indexed": true,
          "internalType": "address",
          "name": "newOwner",
          "type": "address"
        }
      ],
      "name": "OwnershipTransferred",
      "type": "event"
    },
    {
      "inputs": [],
      "name": "addLiquidity",
      "outputs": [
        {
          "internalType": "bool",
          "name": "",
          "type": "bool"
        }
      ],
      "stateMutability": "payable",
      "type": "function"
    },
    {
      "inputs": [
        {
          "internalType": "uint256[]",
          "name": "amounts",
          "type": "uint256[]"
        }
      ],
      "name": "bet",
      "outputs": [
        {
          "internalType": "bool",
          "name": "",
          "type": "bool"
        }
      ],
      "stateMutability": "payable",
      "type": "function"
    },
    {
      "inputs": [
        {
          "internalType": "uint256",
          "name": "amount",
          "type": "uint256"
        }
      ],
      "name": "canBet",
      "outputs": [
        {
          "internalType": "bool",
          "name": "",
          "type": "bool"
        }
      ],
      "stateMutability": "view",
      "type": "function"
    },
    {
      "inputs": [
        {
          "internalType": "uint256",
          "name": "",
          "type": "uint256"
        }
      ],
      "name": "drawResults",
      "outputs": [
        {
          "internalType": "uint256",
          "name": "openTime",
          "type": "uint256"
        },
        {
          "internalType": "uint256",
          "name": "firstDigit",
          "type": "uint256"
        },
        {
          "internalType": "uint256",
          "name": "secondDigit",
          "type": "uint256"
        },
        {
          "internalType": "uint256",
          "name": "thirdDigit",
          "type": "uint256"
        }
      ],
      "stateMutability": "view",
      "type": "function"
    },
    {
      "inputs": [],
      "name": "getLastDrawResult",
      "outputs": [
        {
          "components": [
            {
              "internalType": "uint256",
              "name": "openTime",
              "type": "uint256"
            },
            {
              "internalType": "uint256",
              "name": "firstDigit",
              "type": "uint256"
            },
            {
              "internalType": "uint256",
              "name": "secondDigit",
              "type": "uint256"
            },
            {
              "internalType": "uint256",
              "name": "thirdDigit",
              "type": "uint256"
            }
          ],
          "internalType": "struct BetGame.DrawResult",
          "name": "",
          "type": "tuple"
        }
      ],
      "stateMutability": "view",
      "type": "function"
    },
    {
      "inputs": [],
      "name": "getLiquidity",
      "outputs": [
        {
          "internalType": "uint256",
          "name": "",
          "type": "uint256"
        }
      ],
      "stateMutability": "view",
      "type": "function"
    },
    {
      "inputs": [],
      "name": "owner",
      "outputs": [
        {
          "internalType": "address",
          "name": "",
          "type": "address"
        }
      ],
      "stateMutability": "view",
      "type": "function"
    },
    {
      "inputs": [],
      "name": "renounceOwnership",
      "outputs": [],
      "stateMutability": "nonpayable",
      "type": "function"
    },
    {
      "inputs": [],
      "name": "takeLiquidity",
      "outputs": [
        {
          "internalType": "bool",
          "name": "",
          "type": "bool"
        }
      ],
      "stateMutability": "payable",
      "type": "function"
    },
    {
      "inputs": [
        {
          "internalType": "address",
          "name": "newOwner",
          "type": "address"
        }
      ],
      "name": "transferOwnership",
      "outputs": [],
      "stateMutability": "nonpayable",
      "type": "function"
    }
  ],
  "bytecode": "0x60806040523480156200001157600080fd5b5062000032620000266200006560201b60201c565b6200006d60201b60201c565b6200005773dd2fd4581271e230360230f9337d5c0430bf44c06200013160201b60201c565b60006001819055506200036f565b600033905090565b60008060009054906101000a900473ffffffffffffffffffffffffffffffffffffffff169050816000806101000a81548173ffffffffffffffffffffffffffffffffffffffff021916908373ffffffffffffffffffffffffffffffffffffffff1602179055508173ffffffffffffffffffffffffffffffffffffffff168173ffffffffffffffffffffffffffffffffffffffff167f8be0079c531659141344cd1fd0a4f28419497f9722a3daafe3b4186f6b6457e060405160405180910390a35050565b620001416200006560201b60201c565b73ffffffffffffffffffffffffffffffffffffffff16620001676200024760201b60201c565b73ffffffffffffffffffffffffffffffffffffffff1614620001c0576040517f08c379a0000000000000000000000000000000000000000000000000000000008152600401620001b7906200033c565b60405180910390fd5b600073ffffffffffffffffffffffffffffffffffffffff168173ffffffffffffffffffffffffffffffffffffffff16141562000233576040517f08c379a00000000000000000000000000000000000000000000000000000000081526004016200022a906200031a565b60405180910390fd5b62000244816200006d60201b60201c565b50565b60008060009054906101000a900473ffffffffffffffffffffffffffffffffffffffff16905090565b60006200027f6026836200035e565b91507f4f776e61626c653a206e6577206f776e657220697320746865207a65726f206160008301527f64647265737300000000000000000000000000000000000000000000000000006020830152604082019050919050565b6000620002e76020836200035e565b91507f4f776e61626c653a2063616c6c6572206973206e6f7420746865206f776e65726000830152602082019050919050565b60006020820190508181036000830152620003358162000270565b9050919050565b600060208201905081810360008301526200035781620002d8565b9050919050565b600082825260208201905092915050565b6113f6806200037f6000396000f3fe6080604052600436106100915760003560e01c806391578f111161005957806391578f111461015e578063e8078d9414610189578063ea2ea085146101a7578063f2fde38b146101e7578063fecb03b11461021057610091565b80630910a51014610096578063364e69b7146100c1578063468cabab146100fe578063715018a61461011c5780638da5cb5b14610133575b600080fd5b3480156100a257600080fd5b506100ab610240565b6040516100b89190611025565b60405180910390f35b3480156100cd57600080fd5b506100e860048036038101906100e39190610bfd565b61024a565b6040516100f59190610f2f565b60405180910390f35b610106610264565b6040516101139190610f2f565b60405180910390f35b34801561012857600080fd5b50610131610340565b005b34801561013f57600080fd5b506101486103c8565b6040516101559190610f14565b60405180910390f35b34801561016a57600080fd5b506101736103f1565b604051610180919061100a565b60405180910390f35b610191610444565b60405161019e9190610f2f565b60405180910390f35b3480156101b357600080fd5b506101ce60048036038101906101c99190610bfd565b610466565b6040516101de9493929190611040565b60405180910390f35b3480156101f357600080fd5b5061020e60048036038101906102099190610b93565b610496565b005b61022a60048036038101906102259190610bbc565b61058e565b6040516102379190610f2f565b60405180910390f35b6000600154905090565b6000600460015461025b9190611149565b82109050919050565b600061026e6103c8565b73ffffffffffffffffffffffffffffffffffffffff163373ffffffffffffffffffffffffffffffffffffffff16146102db576040517f08c379a00000000000000000000000000000000000000000000000000000000081526004016102d290610f4a565b60405180910390fd5b60006102e56103c8565b90508073ffffffffffffffffffffffffffffffffffffffff166108fc6001549081150290604051600060405180830381858888f1935050505015801561032f573d6000803e3d6000fd5b506000600181905550600191505090565b61034861090d565b73ffffffffffffffffffffffffffffffffffffffff166103666103c8565b73ffffffffffffffffffffffffffffffffffffffff16146103bc576040517f08c379a00000000000000000000000000000000000000000000000000000000081526004016103b390610fca565b60405180910390fd5b6103c66000610915565b565b60008060009054906101000a900473ffffffffffffffffffffffffffffffffffffffff16905090565b6103f9610aab565b60026000438152602001908152602001600020604051806080016040529081600082015481526020016001820154815260200160028201548152602001600382015481525050905090565b6000346001600082825461045891906110f3565b925050819055506001905090565b60026020528060005260406000206000915090508060000154908060010154908060020154908060030154905084565b61049e61090d565b73ffffffffffffffffffffffffffffffffffffffff166104bc6103c8565b73ffffffffffffffffffffffffffffffffffffffff1614610512576040517f08c379a000000000000000000000000000000000000000000000000000000000815260040161050990610fca565b60405180910390fd5b600073ffffffffffffffffffffffffffffffffffffffff168173ffffffffffffffffffffffffffffffffffffffff161415610582576040517f08c379a000000000000000000000000000000000000000000000000000000000815260040161057990610f8a565b60405180910390fd5b61058b81610915565b50565b6000806000905060005b8351811015610602578381815181106105da577f4e487b7100000000000000000000000000000000000000000000000000000000600052603260045260246000fd5b6020026020010151826105ed91906110f3565b915080806105fa90611250565b915050610598565b5060003411610646576040517f08c379a000000000000000000000000000000000000000000000000000000000815260040161063d90610faa565b60405180910390fd5b61064f3461024a565b61068e576040517f08c379a000000000000000000000000000000000000000000000000000000000815260040161068590610f6a565b60405180910390fd5b3481146106d0576040517f08c379a00000000000000000000000000000000000000000000000000000000081526004016106c790610fea565b60405180910390fd5b600060405180604001604052803373ffffffffffffffffffffffffffffffffffffffff16815260200134815250905080602001516001600082825461071591906110f3565b9250508190555060006107266109d9565b90508060026000438152602001908152602001600020600082015181600001556020820151816001015560408201518160020155606082015181600301559050506000805b60068110156108915760006001905081846020015114156107965760018161079391906110f3565b90505b81846040015114156107b2576001816107af91906110f3565b90505b81846060015114156107ce576001816107cb91906110f3565b90505b6000888381518110610809577f4e487b7100000000000000000000000000000000000000000000000000000000600052603260045260246000fd5b602002602001015111801561081e5750600181115b1561087d578088838151811061085d577f4e487b7100000000000000000000000000000000000000000000000000000000600052603260045260246000fd5b602002602001015161086f919061117a565b8361087a91906110f3565b92505b50808061088990611250565b91505061076b565b50600081111561090057826000015173ffffffffffffffffffffffffffffffffffffffff166108fc829081150290604051600060405180830381858888f193505050501580156108e5573d6000803e3d6000fd5b5080600160008282546108f891906111d4565b925050819055505b6001945050505050919050565b600033905090565b60008060009054906101000a900473ffffffffffffffffffffffffffffffffffffffff169050816000806101000a81548173ffffffffffffffffffffffffffffffffffffffff021916908373ffffffffffffffffffffffffffffffffffffffff1602179055508173ffffffffffffffffffffffffffffffffffffffff168173ffffffffffffffffffffffffffffffffffffffff167f8be0079c531659141344cd1fd0a4f28419497f9722a3daafe3b4186f6b6457e060405160405180910390a35050565b6109e1610aab565b60006109ed60d8610a69565b905060006006826109fe91906112c7565b9050600060068084610a109190611149565b610a1a91906112c7565b905060006006602485610a2d9190611149565b610a3791906112c7565b905060006040518060800160405280428152602001858152602001848152602001838152509050809550505050505090565b600081424433604051602001610a8193929190610ed7565b6040516020818303038152906040528051906020012060001c610aa491906112c7565b9050919050565b6040518060800160405280600081526020016000815260200160008152602001600081525090565b6000610ae6610ae1846110b6565b611085565b90508083825260208201905082856020860282011115610b0557600080fd5b60005b85811015610b355781610b1b8882610b7e565b845260208401935060208301925050600181019050610b08565b5050509392505050565b600081359050610b4e81611392565b92915050565b600082601f830112610b6557600080fd5b8135610b75848260208601610ad3565b91505092915050565b600081359050610b8d816113a9565b92915050565b600060208284031215610ba557600080fd5b6000610bb384828501610b3f565b91505092915050565b600060208284031215610bce57600080fd5b600082013567ffffffffffffffff811115610be857600080fd5b610bf484828501610b54565b91505092915050565b600060208284031215610c0f57600080fd5b6000610c1d84828501610b7e565b91505092915050565b610c2f81611208565b82525050565b610c46610c4182611208565b611299565b82525050565b610c558161121a565b82525050565b6000610c68601d836110e2565b91507f4f6e6c79206f776e65722063616e2074616b65206c69717569646974790000006000830152602082019050919050565b6000610ca86019836110e2565b91507f506f6f6c206c6971756964697479206e6f7420656e6f756768000000000000006000830152602082019050919050565b6000610ce86026836110e2565b91507f4f776e61626c653a206e6577206f776e657220697320746865207a65726f206160008301527f64647265737300000000000000000000000000000000000000000000000000006020830152604082019050919050565b6000610d4e6021836110e2565b91507f42657420616d6f756e74206d7573742062652067726561746572207468616e2060008301527f30000000000000000000000000000000000000000000000000000000000000006020830152604082019050919050565b6000610db46020836110e2565b91507f4f776e61626c653a2063616c6c6572206973206e6f7420746865206f776e65726000830152602082019050919050565b6000610df46026836110e2565b91507f42657420616d6f756e7473206d7573742073756d20746f20746865206265742060008301527f616d6f756e7400000000000000000000000000000000000000000000000000006020830152604082019050919050565b608082016000820151610e636000850182610ea2565b506020820151610e766020850182610ea2565b506040820151610e896040850182610ea2565b506060820151610e9c6060850182610ea2565b50505050565b610eab81611246565b82525050565b610eba81611246565b82525050565b610ed1610ecc82611246565b6112bd565b82525050565b6000610ee38286610ec0565b602082019150610ef38285610ec0565b602082019150610f038284610c35565b601482019150819050949350505050565b6000602082019050610f296000830184610c26565b92915050565b6000602082019050610f446000830184610c4c565b92915050565b60006020820190508181036000830152610f6381610c5b565b9050919050565b60006020820190508181036000830152610f8381610c9b565b9050919050565b60006020820190508181036000830152610fa381610cdb565b9050919050565b60006020820190508181036000830152610fc381610d41565b9050919050565b60006020820190508181036000830152610fe381610da7565b9050919050565b6000602082019050818103600083015261100381610de7565b9050919050565b600060808201905061101f6000830184610e4d565b92915050565b600060208201905061103a6000830184610eb1565b92915050565b60006080820190506110556000830187610eb1565b6110626020830186610eb1565b61106f6040830185610eb1565b61107c6060830184610eb1565b95945050505050565b6000604051905081810181811067ffffffffffffffff821117156110ac576110ab611356565b5b8060405250919050565b600067ffffffffffffffff8211156110d1576110d0611356565b5b602082029050602081019050919050565b600082825260208201905092915050565b60006110fe82611246565b915061110983611246565b9250827fffffffffffffffffffffffffffffffffffffffffffffffffffffffffffffffff0382111561113e5761113d6112f8565b5b828201905092915050565b600061115482611246565b915061115f83611246565b92508261116f5761116e611327565b5b828204905092915050565b600061118582611246565b915061119083611246565b9250817fffffffffffffffffffffffffffffffffffffffffffffffffffffffffffffffff04831182151516156111c9576111c86112f8565b5b828202905092915050565b60006111df82611246565b91506111ea83611246565b9250828210156111fd576111fc6112f8565b5b828203905092915050565b600061121382611226565b9050919050565b60008115159050919050565b600073ffffffffffffffffffffffffffffffffffffffff82169050919050565b6000819050919050565b600061125b82611246565b91507fffffffffffffffffffffffffffffffffffffffffffffffffffffffffffffffff82141561128e5761128d6112f8565b5b600182019050919050565b60006112a4826112ab565b9050919050565b60006112b682611385565b9050919050565b6000819050919050565b60006112d282611246565b91506112dd83611246565b9250826112ed576112ec611327565b5b828206905092915050565b7f4e487b7100000000000000000000000000000000000000000000000000000000600052601160045260246000fd5b7f4e487b7100000000000000000000000000000000000000000000000000000000600052601260045260246000fd5b7f4e487b7100000000000000000000000000000000000000000000000000000000600052604160045260246000fd5b60008160601b9050919050565b61139b81611208565b81146113a657600080fd5b50565b6113b281611246565b81146113bd57600080fd5b5056fea26469706673582212209388cf1b34a7beef67d3ac02088364e2e684fbe8bee3557a7df2f3aa32e06ff964736f6c63430008000033",
  "linkReferences": {},
  "deployedLinkReferences": {}
}