{
  "_format": "hh-sol-artifact-1",
  "contractName": "BetGame",
  "sourceName": "contracts/bet-game.sol",
  "abi": [
    {
      "inputs": [],
      "stateMutability": "nonpayable",
      "type": "constructor"
    },
    {
      "anonymous": false,
      "inputs": [
        {
          "indexed": true,
          "internalType": "address",
          "name": "previousOwner",
          "type": "address"
        },
        {
          "indexed": true,
          "internalType": "address",
          "name": "newOwner",
          "type": "address"
        }
      ],
      "name": "OwnershipTransferred",
      "type": "event"
    },
    {
      "inputs": [],
      "name": "addLiquidity",
      "outputs": [
        {
          "internalType": "bool",
          "name": "",
          "type": "bool"
        }
      ],
      "stateMutability": "payable",
      "type": "function"
    },
    {
      "inputs": [
        {
          "internalType": "uint256[]",
          "name": "amounts",
          "type": "uint256[]"
        }
      ],
      "name": "bet",
      "outputs": [
        {
          "internalType": "bool",
          "name": "",
          "type": "bool"
        }
      ],
      "stateMutability": "payable",
      "type": "function"
    },
    {
      "inputs": [
        {
          "internalType": "uint256",
          "name": "amount",
          "type": "uint256"
        }
      ],
      "name": "canBet",
      "outputs": [
        {
          "internalType": "bool",
          "name": "",
          "type": "bool"
        }
      ],
      "stateMutability": "view",
      "type": "function"
    },
    {
      "inputs": [
        {
          "internalType": "uint256",
          "name": "",
          "type": "uint256"
        }
      ],
      "name": "drawResults",
      "outputs": [
        {
          "internalType": "uint256",
          "name": "openTime",
          "type": "uint256"
        },
        {
          "internalType": "uint256",
          "name": "firstDigit",
          "type": "uint256"
        },
        {
          "internalType": "uint256",
          "name": "secondDigit",
          "type": "uint256"
        },
        {
          "internalType": "uint256",
          "name": "thirdDigit",
          "type": "uint256"
        }
      ],
      "stateMutability": "view",
      "type": "function"
    },
    {
      "inputs": [],
      "name": "getLastDrawResult",
      "outputs": [
        {
          "components": [
            {
              "internalType": "uint256",
              "name": "openTime",
              "type": "uint256"
            },
            {
              "internalType": "uint256",
              "name": "firstDigit",
              "type": "uint256"
            },
            {
              "internalType": "uint256",
              "name": "secondDigit",
              "type": "uint256"
            },
            {
              "internalType": "uint256",
              "name": "thirdDigit",
              "type": "uint256"
            }
          ],
          "internalType": "struct BetGame.DrawResult",
          "name": "",
          "type": "tuple"
        }
      ],
      "stateMutability": "view",
      "type": "function"
    },
    {
      "inputs": [],
      "name": "getLiquidity",
      "outputs": [
        {
          "internalType": "uint256",
          "name": "",
          "type": "uint256"
        }
      ],
      "stateMutability": "view",
      "type": "function"
    },
    {
      "inputs": [],
      "name": "owner",
      "outputs": [
        {
          "internalType": "address",
          "name": "",
          "type": "address"
        }
      ],
      "stateMutability": "view",
      "type": "function"
    },
    {
      "inputs": [],
      "name": "renounceOwnership",
      "outputs": [],
      "stateMutability": "nonpayable",
      "type": "function"
    },
    {
      "inputs": [],
      "name": "takeLiquidity",
      "outputs": [
        {
          "internalType": "bool",
          "name": "",
          "type": "bool"
        }
      ],
      "stateMutability": "payable",
      "type": "function"
    },
    {
      "inputs": [
        {
          "internalType": "address",
          "name": "newOwner",
          "type": "address"
        }
      ],
      "name": "transferOwnership",
      "outputs": [],
      "stateMutability": "nonpayable",
      "type": "function"
    }
  ],
  "bytecode": "0x60806040523480156200001157600080fd5b5062000032620000266200006560201b60201c565b6200006d60201b60201c565b62000057738626f6940e2eb28930efb4cef49b2d1f2c9c11996200013160201b60201c565b60006001819055506200036f565b600033905090565b60008060009054906101000a900473ffffffffffffffffffffffffffffffffffffffff169050816000806101000a81548173ffffffffffffffffffffffffffffffffffffffff021916908373ffffffffffffffffffffffffffffffffffffffff1602179055508173ffffffffffffffffffffffffffffffffffffffff168173ffffffffffffffffffffffffffffffffffffffff167f8be0079c531659141344cd1fd0a4f28419497f9722a3daafe3b4186f6b6457e060405160405180910390a35050565b620001416200006560201b60201c565b73ffffffffffffffffffffffffffffffffffffffff16620001676200024760201b60201c565b73ffffffffffffffffffffffffffffffffffffffff1614620001c0576040517f08c379a0000000000000000000000000000000000000000000000000000000008152600401620001b7906200033c565b60405180910390fd5b600073ffffffffffffffffffffffffffffffffffffffff168173ffffffffffffffffffffffffffffffffffffffff16141562000233576040517f08c379a00000000000000000000000000000000000000000000000000000000081526004016200022a906200031a565b60405180910390fd5b62000244816200006d60201b60201c565b50565b60008060009054906101000a900473ffffffffffffffffffffffffffffffffffffffff16905090565b60006200027f6026836200035e565b91507f4f776e61626c653a206e6577206f776e657220697320746865207a65726f206160008301527f64647265737300000000000000000000000000000000000000000000000000006020830152604082019050919050565b6000620002e76020836200035e565b91507f4f776e61626c653a2063616c6c6572206973206e6f7420746865206f776e65726000830152602082019050919050565b60006020820190508181036000830152620003358162000270565b9050919050565b600060208201905081810360008301526200035781620002d8565b9050919050565b600082825260208201905092915050565b61143b806200037f6000396000f3fe6080604052600436106100915760003560e01c806391578f111161005957806391578f111461015e578063e8078d9414610189578063ea2ea085146101a7578063f2fde38b146101e7578063fecb03b11461021057610091565b80630910a51014610096578063364e69b7146100c1578063468cabab146100fe578063715018a61461011c5780638da5cb5b14610133575b600080fd5b3480156100a257600080fd5b506100ab610240565b6040516100b891906110a5565b60405180910390f35b3480156100cd57600080fd5b506100e860048036038101906100e39190610c51565b61024a565b6040516100f59190610f8f565b60405180910390f35b610106610264565b6040516101139190610f8f565b60405180910390f35b34801561012857600080fd5b50610131610394565b005b34801561013f57600080fd5b5061014861041c565b6040516101559190610f3d565b60405180910390f35b34801561016a57600080fd5b50610173610445565b604051610180919061108a565b60405180910390f35b610191610498565b60405161019e9190610f8f565b60405180910390f35b3480156101b357600080fd5b506101ce60048036038101906101c99190610c51565b6104ba565b6040516101de94939291906110c0565b60405180910390f35b3480156101f357600080fd5b5061020e60048036038101906102099190610be7565b6104ea565b005b61022a60048036038101906102259190610c10565b6105e2565b6040516102379190610f8f565b60405180910390f35b6000600154905090565b6000600460015461025b91906111c9565b82109050919050565b600061026e61041c565b73ffffffffffffffffffffffffffffffffffffffff163373ffffffffffffffffffffffffffffffffffffffff16146102db576040517f08c379a00000000000000000000000000000000000000000000000000000000081526004016102d290610faa565b60405180910390fd5b346001541015610320576040517f08c379a00000000000000000000000000000000000000000000000000000000081526004016103179061104a565b60405180910390fd5b600061032a61041c565b90508073ffffffffffffffffffffffffffffffffffffffff166108fc349081150290604051600060405180830381858888f19350505050158015610372573d6000803e3d6000fd5b5034600160008282546103859190611254565b92505081905550600191505090565b61039c610961565b73ffffffffffffffffffffffffffffffffffffffff166103ba61041c565b73ffffffffffffffffffffffffffffffffffffffff1614610410576040517f08c379a00000000000000000000000000000000000000000000000000000000081526004016104079061102a565b60405180910390fd5b61041a6000610969565b565b60008060009054906101000a900473ffffffffffffffffffffffffffffffffffffffff16905090565b61044d610aff565b60026000438152602001908152602001600020604051806080016040529081600082015481526020016001820154815260200160028201548152602001600382015481525050905090565b600034600160008282546104ac9190611173565b925050819055506001905090565b60026020528060005260406000206000915090508060000154908060010154908060020154908060030154905084565b6104f2610961565b73ffffffffffffffffffffffffffffffffffffffff1661051061041c565b73ffffffffffffffffffffffffffffffffffffffff1614610566576040517f08c379a000000000000000000000000000000000000000000000000000000000815260040161055d9061102a565b60405180910390fd5b600073ffffffffffffffffffffffffffffffffffffffff168173ffffffffffffffffffffffffffffffffffffffff1614156105d6576040517f08c379a00000000000000000000000000000000000000000000000000000000081526004016105cd90610fea565b60405180910390fd5b6105df81610969565b50565b6000806000905060005b83518110156106565783818151811061062e577f4e487b7100000000000000000000000000000000000000000000000000000000600052603260045260246000fd5b6020026020010151826106419190611173565b9150808061064e906112d0565b9150506105ec565b506000341161069a576040517f08c379a00000000000000000000000000000000000000000000000000000000081526004016106919061100a565b60405180910390fd5b6106a33461024a565b6106e2576040517f08c379a00000000000000000000000000000000000000000000000000000000081526004016106d990610fca565b60405180910390fd5b348114610724576040517f08c379a000000000000000000000000000000000000000000000000000000000815260040161071b9061106a565b60405180910390fd5b600060405180604001604052803373ffffffffffffffffffffffffffffffffffffffff1681526020013481525090508060200151600160008282546107699190611173565b92505081905550600061077a610a2d565b90508060026000438152602001908152602001600020600082015181600001556020820151816001015560408201518160020155606082015181600301559050506000805b60068110156108e55760006001905081846020015114156107ea576001816107e79190611173565b90505b8184604001511415610806576001816108039190611173565b90505b81846060015114156108225760018161081f9190611173565b90505b600088838151811061085d577f4e487b7100000000000000000000000000000000000000000000000000000000600052603260045260246000fd5b60200260200101511180156108725750600181115b156108d157808883815181106108b1577f4e487b7100000000000000000000000000000000000000000000000000000000600052603260045260246000fd5b60200260200101516108c391906111fa565b836108ce9190611173565b92505b5080806108dd906112d0565b9150506107bf565b50600081111561095457826000015173ffffffffffffffffffffffffffffffffffffffff166108fc829081150290604051600060405180830381858888f19350505050158015610939573d6000803e3d6000fd5b50806001600082825461094c9190611254565b925050819055505b6001945050505050919050565b600033905090565b60008060009054906101000a900473ffffffffffffffffffffffffffffffffffffffff169050816000806101000a81548173ffffffffffffffffffffffffffffffffffffffff021916908373ffffffffffffffffffffffffffffffffffffffff1602179055508173ffffffffffffffffffffffffffffffffffffffff168173ffffffffffffffffffffffffffffffffffffffff167f8be0079c531659141344cd1fd0a4f28419497f9722a3daafe3b4186f6b6457e060405160405180910390a35050565b610a35610aff565b6000610a4160d8610abd565b90506000600682610a529190611319565b9050600060068084610a6491906111c9565b610a6e9190611319565b905060006006602485610a8191906111c9565b610a8b9190611319565b905060006040518060800160405280428152602001858152602001848152602001838152509050809550505050505090565b600081334243604051602001610ad593929190610f58565b6040516020818303038152906040528051906020012060001c610af89190611319565b9050919050565b6040518060800160405280600081526020016000815260200160008152602001600081525090565b6000610b3a610b3584611136565b611105565b90508083825260208201905082856020860282011115610b5957600080fd5b60005b85811015610b895781610b6f8882610bd2565b845260208401935060208301925050600181019050610b5c565b5050509392505050565b600081359050610ba2816113d7565b92915050565b600082601f830112610bb957600080fd5b8135610bc9848260208601610b27565b91505092915050565b600081359050610be1816113ee565b92915050565b600060208284031215610bf957600080fd5b6000610c0784828501610b93565b91505092915050565b600060208284031215610c2257600080fd5b600082013567ffffffffffffffff811115610c3c57600080fd5b610c4884828501610ba8565b91505092915050565b600060208284031215610c6357600080fd5b6000610c7184828501610bd2565b91505092915050565b610c8381611288565b82525050565b610c928161129a565b82525050565b6000610ca5601d83611162565b91507f4f6e6c79206f776e65722063616e2074616b65206c69717569646974790000006000830152602082019050919050565b6000610ce5601983611162565b91507f506f6f6c206c6971756964697479206e6f7420656e6f756768000000000000006000830152602082019050919050565b6000610d25602683611162565b91507f4f776e61626c653a206e6577206f776e657220697320746865207a65726f206160008301527f64647265737300000000000000000000000000000000000000000000000000006020830152604082019050919050565b6000610d8b602183611162565b91507f42657420616d6f756e74206d7573742062652067726561746572207468616e2060008301527f30000000000000000000000000000000000000000000000000000000000000006020830152604082019050919050565b6000610df1602083611162565b91507f4f776e61626c653a2063616c6c6572206973206e6f7420746865206f776e65726000830152602082019050919050565b6000610e31601483611162565b91507f4e6f7420656e6f756768206c69717569646974790000000000000000000000006000830152602082019050919050565b6000610e71602683611162565b91507f42657420616d6f756e7473206d7573742073756d20746f20746865206265742060008301527f616d6f756e7400000000000000000000000000000000000000000000000000006020830152604082019050919050565b608082016000820151610ee06000850182610f1f565b506020820151610ef36020850182610f1f565b506040820151610f066040850182610f1f565b506060820151610f196060850182610f1f565b50505050565b610f28816112c6565b82525050565b610f37816112c6565b82525050565b6000602082019050610f526000830184610c7a565b92915050565b6000606082019050610f6d6000830186610c7a565b610f7a6020830185610f2e565b610f876040830184610f2e565b949350505050565b6000602082019050610fa46000830184610c89565b92915050565b60006020820190508181036000830152610fc381610c98565b9050919050565b60006020820190508181036000830152610fe381610cd8565b9050919050565b6000602082019050818103600083015261100381610d18565b9050919050565b6000602082019050818103600083015261102381610d7e565b9050919050565b6000602082019050818103600083015261104381610de4565b9050919050565b6000602082019050818103600083015261106381610e24565b9050919050565b6000602082019050818103600083015261108381610e64565b9050919050565b600060808201905061109f6000830184610eca565b92915050565b60006020820190506110ba6000830184610f2e565b92915050565b60006080820190506110d56000830187610f2e565b6110e26020830186610f2e565b6110ef6040830185610f2e565b6110fc6060830184610f2e565b95945050505050565b6000604051905081810181811067ffffffffffffffff8211171561112c5761112b6113a8565b5b8060405250919050565b600067ffffffffffffffff821115611151576111506113a8565b5b602082029050602081019050919050565b600082825260208201905092915050565b600061117e826112c6565b9150611189836112c6565b9250827fffffffffffffffffffffffffffffffffffffffffffffffffffffffffffffffff038211156111be576111bd61134a565b5b828201905092915050565b60006111d4826112c6565b91506111df836112c6565b9250826111ef576111ee611379565b5b828204905092915050565b6000611205826112c6565b9150611210836112c6565b9250817fffffffffffffffffffffffffffffffffffffffffffffffffffffffffffffffff04831182151516156112495761124861134a565b5b828202905092915050565b600061125f826112c6565b915061126a836112c6565b92508282101561127d5761127c61134a565b5b828203905092915050565b6000611293826112a6565b9050919050565b60008115159050919050565b600073ffffffffffffffffffffffffffffffffffffffff82169050919050565b6000819050919050565b60006112db826112c6565b91507fffffffffffffffffffffffffffffffffffffffffffffffffffffffffffffffff82141561130e5761130d61134a565b5b600182019050919050565b6000611324826112c6565b915061132f836112c6565b92508261133f5761133e611379565b5b828206905092915050565b7f4e487b7100000000000000000000000000000000000000000000000000000000600052601160045260246000fd5b7f4e487b7100000000000000000000000000000000000000000000000000000000600052601260045260246000fd5b7f4e487b7100000000000000000000000000000000000000000000000000000000600052604160045260246000fd5b6113e081611288565b81146113eb57600080fd5b50565b6113f7816112c6565b811461140257600080fd5b5056fea26469706673582212202e541111272d36520e92dfae90e12bdd9c51a6e1263bcccb7e2d4b9222c9699064736f6c63430008000033",
  "linkReferences": {},
  "deployedLinkReferences": {}
}